:040000032000473161
:020000040002F8
:1000000011C0FFEE00400200626C696E6B795F7692
:10001000312E302E300000000000000000000000F3
:1000200000000000000000000000000000000000D0
:1000300000000000000000000000000000000000C0
:080040000000000000000000B8
:104000004013002031470200837B02001D4702005D
:104010001D4702001D4702001D470200000000006E
:10402000000000000000000000000000ED4702005A
:104030001D470200000000008D4702001D470200DE
:104040008549020085490200854902008549020030
:104050008549020085490200854902008549020020
:104060008549020085490200854902008549020010
:104070008549020085490200854902008549020000
:1040800085490200854902008549020085490200F0
:1040900085490200854902008549020085490200E0
:1040A00085490200854902008549020085490200D0
:1040B00085490200854902008549020085490200C0
:1040C00085490200854902008549020085490200B0
:1040D00085490200854902008549020085490200A0
:1040E0008549020085490200854902008549020090
:1040F0008549020085490200854902008549020080
:10410000F8B5174D284603F06EFF044630B32A6910
:10411000A968136823F0080313600B684FF420228A
:10412000032128469847002818DB0E4F0E4EAB6837
:1041300008215B692846984700280FDB84F00104BA
:1041400014F0FF0414BF39463146084803F050F913
:1041500000214FF4004003F0F4FFE8E70020F8BD31
:10416000608302008C8602008F8602009386020024
:10417000014B1B68184700BF00000020014B18606E
:10418000704700BF0000002030B585B004460D46E2
:1041900010220021684604F039F802238DF802301D
:1041A0002A46044B01932146684603F033F905B0D3
:1041B00030BD00BF7141020080B505460E4617466E
:1041C000984602F0BDFE034604F08CF8DFF8189024
:1041D000044649F80030424630463946A84754F86C
:1041E000090000F0BDFA00BF080000002DE9F0470B
:1041F000058B04462807904611D4022905F00705CF
:1042000040F0CC80204603F0DAFB78B10138218BF6
:10421000042811D8DFE800F0C2106D85950001294F
:104220000CBF45F0100545F02005258388F3118863
:10423000BFF36F8FBDE8F08701F0070AAA4500F0D1
:10424000A5800027B9463E46A368002B00F0BC803D
:1042500041F00801218388F31188BFF36F8FA168B3
:10426000002900F0BA800D68002900F0B680D1F86E
:104270000480334652462046C047002D76D02B6836
:1042800029461D46F0E701F007035A1F012A1BD8F3
:10429000002221F00701062B276889B2C4E9002219
:1042A00009D13B4603E0628B013262831B68002B1D
:1042B000F9D141F002012183204603F080FB002860
:1042C0007AD041F0200176E0042B0AD121F00701D9
:1042D00089B22183204603F072FB10B141F0200126
:1042E0002183218B01F0070AAA454FD00027B94648
:1042F000AAE7236921F0070141F00601062DD3F852
:10430000009021832DD1B9F1000F3FD041F0080179
:10431000218388F31188BFF36F8F3A492046C8473D
:1043200029E021F00701236941F0040189B2042D3D
:10433000D3F804902183E6D000273E464FF0040ACC
:1043400082E721F00701236941F0050189B2052DBB
:10435000D3F808902183D6D000273E464FF0050AB7
:1043600072E700273E464FF0060A6DE72B4687E7C7
:10437000B9F1000FD1D1EFF31188202383F3128814
:10438000BFF36F8F238B23F008032383258BEA066B
:104390002ED525F01003238305F007056669218BD0
:1043A000002EBFF670AF00232768C4E9003321F068
:1043B000070141F001012183218B01F0070AAA4581
:1043C0004FF000097FF440AF002F9CD041F008016E
:1043D000218388F31188BFF36F8F002FC8D03D6809
:1043E000394633465246204603F015FB2F46F4E784
:1043F000AB067FF51BAF25F02003238305F00705EF
:1044000000E700BF437A0200014B036000207047C1
:104410007885020030BFFFF7FDBF00BF2DE9F041F6
:104420000B4EDFF8308006EB0807CC1B0546324602
:104430000949204603F0DCFEA01942460021083C51
:1044400003F0E4FE2C6707F10800BDE8F08100BF2F
:10445000000000000400000068850200054B5A6956
:104460009B689A421FBF044A536843F080535360CD
:10447000704700BF3C03002000ED00E070B5264B04
:1044800015469A6A12F0100F9A6A14BF112410246C
:1044900012F0080F9A6A18BF1224920706460AD52E
:1044A000586B9A6A140634D519B19A6A22F08002C0
:1044B0009A62132401E06FF01500174B9A6A12F00C
:1044C000010F9A6A18BF142412F0200F9A6A18BFBD
:1044D0001524D20602D49B6A9B070AD50E4B5B6853
:1044E000190506D5314600F007FA10B180F30988A6
:1044F0000224094B9A6A920642BF5A6A22F4005279
:104500005A629A6A42F0FF029A6200232B70204698
:1045100070BD6FF01500CCE700ED00E0134B9A6A18
:1045200012F0007F9A6A14BF1E201D2012F0807FB7
:104530009A6A18BF1F2012F4002F9A6A18BF212010
:1045400012F4802F9A6A18BF222012F4003F9A6A50
:1045500018BF232012F4803F9A6A6FEA02426FEA82
:1045600012429A6218BF2420704700BF00ED00E09D
:1045700010B5194B0246986A9C6A10F4805F14BF0C
:104580001720162014F4006F9C6A18BF1820A40589
:1045900009D5986B986A000404D51AB19A6A22F476
:1045A00000429A6219200C4B9A6A12F4806F9A6A40
:1045B00018BF1A20D2050CD49B6A13F4005F18BFF1
:1045C0001C20054A936A43F47F43936200230B70D7
:1045D00010BD1B20F5E700BF00ED00E0F0B5484B33
:1045E0005B688BB00446C3F30803002585F311888C
:1045F000BFF36F8F02F07F40B0F17F4F11D102F017
:104600000C0008280DD010074CBF0C4601250022D5
:10461000033B8DF80720032B05D8DFE803F0246364
:1046200067602C46F3E700239DF80720CAB902AE65
:1046300004F1200720686168324603C20834BC4296
:104640001646F7D1099A002D54D0C2F3080121B9BA
:104650006FEA52226FEA4222099202A9184603F039
:1046600086FA0BB0F0BD264BDA6A9107DBD4DA6A22
:10467000002AD8DBDA6A5200D5D55A69A16942F41A
:1046800080725A61BFF34F8FBFF36F8F5A6931F851
:10469000021C22F480725A61BFF34F8FBFF36F8FF9
:1046A0004DF6027291420AD09A6AD2B24AB10DF125
:1046B000070201212046FFF7E1FE0346B4E7236825
:1046C000B2E79A6A12F47F4F05D00DF1070101207D
:1046D000FFF74EFFF1E79B6AB3F5803FA3D3FFF7E7
:1046E0001DFFEAE70DF107020021E3E70DF10701E5
:1046F0000020EDE722F4FF7222F00102ACE700BFD8
:1047000000ED00E0044B5A6942F010025A615A6908
:1047100022F008025A61704700ED00E0EFF30880D4
:10472000EFF3098101B57246FFF758FF01BD00BFE5
:1047300001F00CFA202080F3118808484FF404613E
:10474000401880F30988EFF314800221084380F3B6
:104750001488BFF36F8F00F08FF8000080030020F3
:10476000084B9B6883420BD1EFF3058343B1064BA3
:104770005A6842F080525A605A6A22F400425A62E1
:1047800002F0E4BB3C03002000ED00E014498A681D
:104790004FF030001044EFF3098C80E8F01F202028
:1047A00080F31288BFF36F8F0E4F4FF000664A6997
:1047B0008A603E60106F0C4C2060506F002353677E
:1047C00080F3118804B5104600F0FAF8BDE8044003
:1047D00002F1300090E8F01F8CF309887047000068
:1047E0003C03002004ED00E0700200201EF0040FE6
:1047F0000CBFEFF30880EFF30980816911F8021C08
:104800000229FFD001B5724603F0B7F901BD00BF20
:1048100040B2002807DB044A4109012300F01F00D1
:10482000834042F82130704700E100E0054B420927
:1048300000F01F0053F82220012303FA00F010407B
:10484000704700BF00E100E040B20028A8BF00F1BF
:10485000604001F10101B8BF064B4FEA4111ACBF06
:1048600000F5614000F00F00C9B2B4BF195480F8E0
:104870000013704714ED00E00F4A08B50F4B22F00B
:104880007F029A60BFF34F8FBFF36F8FD3F88820FA
:1048900022F47002C3F88820EFF3148323F004039A
:1048A00083F31488BFF36F8F01F0D6FF02F064FC2E
:1048B00000F05CF802F014F80040020000ED00E0A7
:1048C00042F8203C009B42F81C3C0A49019B42F8FC
:1048D000183C029B42F8143C21F001014FF0807318
:1048E00042F8043C42F8081C0023203A0265436762
:1048F000704700BFB9410200094A0346906870B191
:1049000013F1160F006E05D0A0F140029A4205D8AF
:10491000834203D2814228BF0020704700207047A5
:104920003C03002008B51546094A0A4B9060026F07
:104930001A600E4600F044F82C4686F309880020E1
:10494000054B98472046002100220023034C2047B6
:104950003C03002070020020997B0200B941020054
:10496000014B10221A61704700ED00E0044800235B
:104970002021C2180133302B82F80013F9D170477F
:1049800000E100E008B5EFF30583064A103B02EBB7
:10499000C30152F8330049688847BDE80840FFF773
:1049A0005DBD00BF9C830200024B034A0348012106
:1049B00000F076B800000420000000207885020096
:1049C000026E054B403A1A60044A4021C3E90112C5
:1049D0001846012100F06EB87402002000000B158B
:1049E000084AC2F898000B6823F01F03034343F002
:1049F0001003C2F89C308B6843F00103C2F8A0306A
:104A0000704700BF00ED00E02DE9F043DFF8608063
:104A100085B00E461F4604464FF00009B14523DA23
:104A20006068D8B13FB1411E08421BD11F2819D977
:104A30002368194216D12368019303F0D0F8A368C4
:104A400003430393D8F89050C5F30725D0B2013D36
:104A5000A84207D801A9FFF7C3FF421C09F10109C9
:104A60000C34DBE76FF01502104605B0BDE8F083AB
:104A700000ED00E0044B0522C3F89420BFF34F8FF4
:104A8000BFF36F8F704700BF00ED00E0BFF35F8F93
:104A9000024B0022C3F89420704700BF00ED00E0F5
:104AA00010B5034C01232278FFF7AEFF207010BD34
:104AB0006C03002008B50B4A00231278FFF7A4FF0F
:104AC00010F1160F07D0084A0021D2F89030C3F336
:104AD0000723984200DB08BDC2F89800C2F8A01076
:104AE0000130F2E76C03002000ED00E02DE9F04317
:104AF000534B544CD3F890302568C3F307239D42A1
:104B000085B000F29A80FFF7C1FF00200C26854295
:104B10001AD14D4C4D4F25706846FFF775FCDFF8F4
:104B20002081DFF82C9106460025AE4213D1237870
:104B300043490020D1F89020C2F30722934276DB4C
:104B4000FFF798FF002042E0616806FB0011FFF7C5
:104B500047FF0130DBE7009800EB05114FEA051C29
:104B6000CB683B40B3F5000F48D00AD8B3F5001F1F
:104B700030D0B3F5800F36D0B3F5801F10D001359B
:104B8000D3E7B3F1807F42D0B3F1007FF7D150F883
:104B90000C3088684A6803F022F840F4802009E06D
:104BA00050F80C3088684A6803F019F840F08850D3
:104BB00040F43020CDE901230390D8F890302078DC
:104BC000C3F30723013B98422AD96FF0150005B0C3
:104BD000BDE8F08350F80C3088684A6802F0FFFFA7
:104BE00040EA0900E6E750F80C3088684A6802F0AD
:104BF000F6FF40F0E06040F40030DBE750F80C30A6
:104C000088684A6802F0EBFF40F08270D2E750F803
:104C10000C3088684A6802F0E2FF40F08870C9E70B
:104C200001A9FFF7DDFE237801332370A7E7C1F860
:104C30009830C1F8A00001337CE74FF0FF30C6E7A1
:104C400000ED00E0848502006C0300200000F0FF0E
:104C50000000081108B5024B1B689847002008BDEA
:104C600080020020034B044A1860937843F002034B
:104C700093707047800200200400002008B50649A8
:104C8000064821F00701C1F1005202F5802202F02E
:104C90004AFE002008BD00BF8713002084020020C8
:104CA0000E4A0123C2F840354FF080424FF0805148
:104CB000C2F87835D1F83001082808D1D1F834117C
:104CC000052904D80648415C09B1C2F838364FF0CE
:104CD00080430122C3F880250020704700E0014096
:104CE000B186020020B1034B800143F00103184755
:104CF000704700BF70850200084B70B5C31A0D469F
:104D000007499B10044659430648402202F085FF9C
:104D10002B4601462046BDE870401847A4020020FB
:104D2000B76DDBB63883020073B50C4C0C4A4023D8
:104D3000041B00930D460B460A49A4106143064626
:104D4000094802F096FF011E05DA30462B4602B0F4
:104D5000BDE87040184702B070BD00BFA40200203B
:104D6000DD7C0200B76DDBB63883020010B5EFF3CF
:104D70001184202383F31288BFF36F8F074A1368CF
:104D800023F00201DB07116002D4012003F0A4F834
:104D900084F31188BFF36F8F10BD00BFF4020020B1
:104DA000002270B5012104461046FFF74DFD0F4863
:104DB00001F022F80E4B984215D101F02DF826692A
:104DC0000C49304602F04AFE00280BDB0125356411
:104DD0002469084904F11C0002F040FE002801DBB0
:104DE000E564002070BD6FF00400FBE7F14E0200A7
:104DF0000000AD0BA88502001FB500220123CDE9FC
:104E00000223094ACDF800D06B46CDF804D002F059
:104E10005EFF002805DB4FF480420023684601F066
:104E2000FBFD05B05DF804FBFB7C020030B4104BC9
:104E30000C2202FB003301460020D3E90E52986396
:104E4000EFF31180202484F31288BFF36F8F1C6C62
:104E500004F0C00444F002041C6480F31188BFF322
:104E60006F8F1DB12B46034830BC184730BC7047CC
:104E7000A40200203883020010B4EFF31182202333
:104E800083F31288BFF36F8F1748016841F0020463
:104E90000460C80707D482F31188BFF36F8F012025
:104EA00010BC00F0CBBF4FF08041D1F80C04D1F81A
:104EB0000C14C907EFD5EFF3118083F31288BFF309
:104EC0006F8F0A490B6C03F0C00343F002030B64BD
:104ED00080F31188BFF36F8F82F31188BFF36F8F58
:104EE000002010BCFFF7A2BFF4020020A4020020A3
:104EF00010B1012804D07047034B1B6C5B0701D134
:104F0000FFF794BF704700BFA40200202DE9F041D5
:104F10003849BFF35B8F0746012251E8003F41E863
:104F200000200028F9D1BFF35B8F33B932493348F1
:104F30004B60CB608A6002F0A4FD7B1E012B2BD856
:104F4000012F07D14FF08043D3F81C3403F0030343
:104F5000012B21D003F085F80546F8B9284B1B78C2
:104F6000E3B14FF080430222C3F808230646DFF87E
:104F700094804FF08044D4F81824D4F81834D20325
:104F800015D503F00303012B01D0012F0FD155B329
:104F900086F31188BFF36F8FBDE8F081EFF31186C0
:104FA000202383F31288BFF36F8F0125DFE7ADB1B4
:104FB000304602F005FED4F81835002BDBD1D4F8CA
:104FC0000421002AD7D0C4F80431D4F804310123D5
:104FD000C4F81835C8F88031A360CCE7002121203F
:104FE00003F0AFF8E7E74FF080430222C3F8042351
:104FF000D2E700BFA002002090020020C0020020E3
:105000007103002000E100E008B5074802F0EBFF63
:1050100038B10648FFF726FE0448FFF7AFF8002036
:1050200008BD6FF01200FBE78883020031500200D8
:105030000A2838B5074D044604D1AB680D215B68DA
:1050400028469847AB6803485B68E1B2984720461A
:1050500038BD00BF88830200F0B54068057B01F0D1
:105060001F0444EA4514056987B0002D64D0B2F5E9
:10507000001F00F1100506D12146284602F0ACFFC2
:10508000002007B0F0BD01AE0027B2F5800F0197F8
:10509000776039D1B3F1007F14BF052304238DF865
:1050A00004300023CDE904630393836823FA01F1FC
:1050B00011F001011AD1B2F1A07F17D104F01F0342
:1050C000620903F5E0732AD0012A3BD11F4A52F846
:1050D0002330DB070AD40DF1030632462146284669
:1050E00001F08AF91A4B98421CD0029603AA214675
:1050F000284601F043F8174B984220D1012221465F
:10510000284601F0DDF9BBE7B3F1C06F05D0B3F17C
:10511000007F14BF01230223C1E70323BFE74FF041
:10512000A042D4E73146284601F0C4F9094B984221
:10513000DBD06FF00B00A4E76FF08500A1E76FF004
:1051400015009EE751F82330FFDE00BF000300503A
:105150000400AD0B0000AD0B38B545682B69B3B149
:105160001035284601F096F9044680B901462846D4
:1051700001F05CF9084B98420BD1084922462846B9
:1051800001F034F9224605210620FFF75DFB0020DF
:1051900038BD6FF00400FBE70000AD0BA151020029
:1051A000420970B5034602D0012A17D070BD0D4EDA
:1051B000326951680029F9D003F01F0301250C68FA
:1051C0009D400029F2D08A682A4002D04B683046C0
:1051D00098472CB1236821461C46F2E7024EE7E7C8
:1051E0002346F8E7608302004C8302002DE9F04378
:1051F000466840F20635D006337B87B002EA0505E3
:1052000054BFC2F34010032001F01F07B5F5837FA0
:10521000144647EA43178DF8030045D00FD8062DF2
:1052200018D007D8B5B1022D40D06FF0150007B0E7
:10523000BDE8F083B5F5807FF7D101250AE040F2A3
:105240000222954234D0B5F5407F33D0B5F5007FCA
:10525000EBD102250123220303FA01F12CD5736857
:10526000C3F80815326982BB07F01F037F0929D0F4
:10527000012F77D13E4A02EB830284F48033D2F8C7
:105280000017C3F30043C4F3404444EA430421F449
:10529000E16144EA800421F0070144EA05230B435D
:1052A000C2F800370020C2E70725D3E70425D1E77D
:1052B0000525CFE70325CDE7630344BF7368C3F833
:1052C0000C15CFE74FF0A042D5E710360DF10202E2
:1052D0003946304601F090F814F4403F80460CD136
:1052E0003946304602F076FE224B9845DAD19DF8D9
:1052F0000210304601F0D8F8D4E701AB4FF00009B6
:1053000003AA39463046CDE90439CDE90199CDF8F3
:105310000C9000F033FF174B984286D114F4003301
:1053200015D09DF803308DF80E3084F48034C4F32A
:1053300000444B4603AA394630468DF80C508DF890
:105340000D4000F0D5FF0B4B9842CDD06DE7CDE975
:10535000043303AA0DF1030339463046039300F0EA
:105360000DFFF0E703F5E07352F82330FFDE00BFD6
:10537000000300500000AD0B036803F01F025B093F
:10538000026004D0012B034818BF002070474FF083
:10539000A0407047000300502DE9F04FDFF8A0A1B6
:1053A000DFF8A0B185B01546064600EB810140F25A
:1053B000FF19B14203D1002005B0BDE8F08F33687A
:1053C0005804C3F3C322C3F3080400F1B3801B0ED7
:1053D0001AF802804C4508BF4FF0FF34222B00F230
:1053E000AC80DFE803F0122128412B3141AAAAAAA0
:1053F000AAAAAA44474A4D505356AAAA59636669B5
:10540000AAAAAA6C96999C9FA200C5F80C45631C99
:1054100018D003A80394FFF7AFFF039B012707FAF7
:1054200003F3C0F8083504E0C5F81445621C09D040
:1054300000273A4649E0C5F80845E8E7631CC5F887
:10544000084575D10436B4E7C5F80C45671CF9D09A
:10545000012703A80394FFF78FFF039B012202FAA1
:1054600003F3C0F80C3530E0C5F81045DEE7C5F8A9
:105470006445EBE7C5F86445D8E7C5F86845E5E756
:10548000C5F86845D2E7C5F86C45CFE7C5F8704563
:10549000DCE7C5F86045D9E7C5F86045601C3368AE
:1054A000D0D0C3F30043002BB3D1D1E7C5F8644596
:1054B000F4E7C5F86845F1E7C5F86C45EEE7C5F8CF
:1054C0002445621CBED0002201273368019303F4F7
:1054D0000040002818BF002203A8009218BF01272F
:1054E0000394FFF749FF039C019B009A00EB8400A3
:1054F000C3F3412CD0F800474FEA082343EA8C035A
:10550000134304EA0B04234343EA4703C0F800377C
:1055100098E7C5F828457AE7C5F83045D1E7C5F8DA
:105520003445CEE7C5F83845CBE7C5F83C456EE7CE
:1055300000278EE76FF015003EE76FF085003BE730
:10554000E2860200F0F8FCFF2DE9F04104464768CE
:105550000D4602F086FD4FF0200888B9264B1B78D7
:1055600073B16426606802F04DFCF0B9012002F0CE
:10557000A5FC013EF6D10021212002F0E2FDF0E77A
:10558000EFF31186314688F31288BFF36F8F60689E
:1055900002F038FCA8B986F31188BFF36F8FEFE7EC
:1055A00086F31188BFF36F8FE5E7EFF3118631467D
:1055B00088F31288BFF36F8F606802F023FC002825
:1055C000EED0BB691D706368BA691B680020C3F820
:1055D00044250122C3F84825C3F82001D3F820410F
:1055E000C3F85801D3F858019A6081F31188BFF3CA
:1055F0006F8FBDE8F08100BF71030020F7B54268EE
:1056000011681369C1F82435137D0546507D927DDC
:1056100003431343C1F86C356E68D6E9004313F0B9
:10562000010348D02F6907F1080002F053FC304B0A
:1056300098425AD1387A04F10C0204F5907102F0C4
:105640003FFC387A012707FA00F000F06DFB0823D1
:10565000C4F80035B369C4F844350023C4F84835AC
:10566000A760D4F85831002BFBD00021C4F80015F6
:105670006B68DC6801AA204602F097FB002805DB76
:10568000019B226819791868FFF786FE6A6813681B
:105690000821C3F80015117A51B9D269C3F834252D
:1056A0000122C3F83825C3F81011D3F810111A607D
:1056B000002003B0F0BD0822C4F80025B269C4F888
:1056C0004425C4F848350123A360D4F82031002BC9
:1056D000FBD00023C4F82031D4F820310123E3604B
:1056E0004FF48073C4F80433BBE76FF00400E0E7C5
:1056F0000000AD0B70B5012383400E4ABFF35B8FF2
:10570000DC4352E8001F01EA040542E80056002E7F
:10571000F7D1BFF35B8F4FF4803282400648C0F868
:105720000823BFF35F8FBFF36F8F0B4214BF0120BD
:10573000002070BD2C0300200010014070B40E4901
:10574000D1E90034D01AC31844F1000422F07F4696
:10575000C1E90034A6F50013B3F5400F09D2074B99
:105760001B681A0A1B069C19054B42F10005C3E988
:10577000004570BC01F0C0BDC00000203003002017
:10578000C800002011B3BFF35B8F0123104A834090
:1057900052E800CF4CEA030C42E800C10029F7D1DF
:1057A000BFF35B8F0B4A4FF480338340C2F804335E
:1057B000094BBFF35B8F1B68BFF35B8FC340DB07F5
:1057C00042BF064B4FF40032C3F80021704700BFC0
:1057D0002C030020001001402803002000E100E01D
:1057E0000D4B1868010A0006BFF35F8F0B4BD3F80F
:1057F0000435181841F10001B3F5801F0AD2084B97
:10580000D3E90023904271EB030303D210F18070BF
:1058100041F10001704700BF30030020001001403B
:10582000C80000202DE9F04F85B016461F469DF8B0
:1058300040A00446FFF75EFF0190FFF7D1FFB042A2
:1058400071EB070354D23E4B301A67EB01019842CB
:1058500071F100014FD23B4B03EB0413D3E9022358
:105860009F4208BF96425ED037494FF4803804F11A
:10587000500508FA04F8AD00C1F848832046ADB2DF
:1058800002F00FFB26F07F4B05F1804504F5A8736D
:1058900005F58835DC464FF003090293029A2CF097
:1058A0007F4341F82230C1F84483D1F80435274AB8
:1058B0006FF00200C01A604420F07F40904232D95D
:1058C000286868B1D1F804350393A3EB0B0020F0EE
:1058D0007F40B0F5000F26D9204602F0E2FA039B84
:1058E000BAF1000F07D109EB030C09F10109D5E763
:1058F000BAF1000F09D06FF0150520460199FFF7A6
:1059000041FF284605B0BDE8F08F0123104ABFF3E0
:105910005B8FA34052E8000F184342E800010029C2
:10592000F8D1BFF35B8F07490E98230101EB0412F6
:10593000C8500F9B5360C2E902670025DDE700BF36
:1059400001008000B000002000100140FDFF7F003A
:10595000280300207FB51C4C1C4BC4F80833C4F846
:1059600048331B4B00254FF0FF304FF0FF31C4F898
:105970000855C3E902014FF48033C4F80433154BD2
:1059800002264FF400320121C4F804631120C3F849
:1059900080212A46FEF758FF1120FEF739FF0E4AF4
:1059A0000123A360236013600C4B0D4A0093CDE9E3
:1059B000015500232846FFF735FF3046FFF7A6FACA
:1059C000284604B070BD00BF0010014003000F0066
:1059D000B000002000E100E02C0300203D57020051
:1059E000FFFF7F002DE9F7432F4CD4F804339907CC
:1059F0000BD5D4F8043143B12C4A0023C4F8043148
:105A0000D4F80431136801331360D4F80433DA0393
:105A100029D5BFF35B8F264B53E8002F22F00101FD
:105A200043E800100028F7D1BFF35B8FD30702D4FF
:105A3000D4F84031BBB10025C4F84051D4F840310E
:105A4000FFF7CEFEEFF31182202383F31288BFF31A
:105A50006F8F184BD3E90267B042B94106D282F387
:105A60001188BFF36F8F03B0BDE8F0834FF0FF38AC
:105A70004FF0FF39C3E90289D3E900101D604FF4EC
:105A80008033C4F84833C4F84051D4F8403182F32D
:105A90001188BFF36F8F0029E5D0009032463B4656
:105AA00028468847DFE700BF001001403003002090
:105AB00028030020B000002030B5431C124C85B0F4
:105AC00005D08442A8BF0446012CB8BF0124FFF7CB
:105AD00087FE0E4B0C4DD3E90013401AB0F5000FB2
:105AE00010D22218AA4228BF2A4652184FF00000AE
:105AF00007490091CDE9010043F10003FFF792FE51
:105B000005B030BD2A46F0E7FFFF7F00C00000204F
:105B10003D57020008B5FFF763FE024B1B68C01A31
:105B200008BD00BFC00000204FF08053D3F83021E3
:105B3000082A06D1D3F83431052B02D8024AD05CAA
:105B400070470020704700BF0C87020008B54FF077
:105B50008053D3F83021082A4ED14FF080420021E3
:105B6000C2F80C11C2F81011C2F8381502F5404203
:105B7000D3F80414C2F82015D3F80814C2F8241579
:105B8000D3F80C14C2F82815D3F81014C2F82C1549
:105B9000D3F81414C2F83015D3F81814C2F8341519
:105BA000D3F81C14C2F84015D3F82014C2F84415D9
:105BB000D3F82414C2F84815D3F82814C2F84C15A9
:105BC000D3F82C14C2F85015D3F83014C2F8541579
:105BD000D3F83414C2F86015D3F83814C2F8641539
:105BE000D3F83C14C2F86815D3F84014C2F86C1509
:105BF000D3F84434C2F87035FFF796FF18B1234B41
:105C0000234AC3F88C26FFF78FFF18B1214BFB22E4
:105C1000C3F81825FFF788FF70B14FF080414FF0AF
:105C20008053D1F8E42ED3F8583222F00F0203F05B
:105C30000F031343C1F8E43EFFF776FF20B1164B84
:105C40004FF40072C3F840264FF08053D3F8303140
:105C5000082B1AD14FF08043D3F80024D20744BF59
:105C60006FF00102C3F800244FF08053D3F83431B1
:105C7000052B02D8094AD35C3BB14FF01023D3F86F
:105C800008224FF08043C3F8582508BD005000405B
:105C90004881030000F000400090024006870200A7
:105CA00030B50468CCB1BFF35B8FB4FA84F3C3F1B1
:105CB0001F03DBB201229A4024EA020250E8005F8F
:105CC000A54204D140E8002CBCF1000FF6D1BFF38F
:105CD0005B8FE6D102480B7030BD0248FCE700BF85
:105CE0000000AD0B0200AD0B10B50368CB40DB0725
:105CF00014D401238B400268BFF35B8F43EA020197
:105D000050E8004F944204D140E8001CBCF1000F61
:105D1000F6D1BFF35B8FEED1014810BD0148FCE71F
:105D20000000AD0B0400AD0B014BC3F80405704738
:105D300000F00140F7B50546F8B101281BD1042257
:105D40004FF4807301464FF0804003440244C0F892
:105D500008130026012111601E608D421B688DF81A
:105D6000071008BF0DF1070642F210744FF080478C
:105D700045B1012D28D003B0F0BD0C224FF4827341
:105D80000221E0E7D7F8183403F480333EB9002B42
:105D9000F1D0012002F092F8013CF3D1EBE7D7F803
:105DA000182402F003023260002BE4D09DF80700B3
:105DB000012803D102F082F8013CD9D1012DDAD1BA
:105DC0000C4B00225A71D6E7D7F80C3403F4803319
:105DD0003EB9002BF4D0012002F070F8013CF3D161
:105DE000EEE7D7F80C2402F001023270002BDDD16F
:105DF000E6E700BF34030020044B1A7922B90122E0
:105E000018609A80024870470248704734030020A7
:105E10000000AD0B0C00AD0B08B5074B1B682BB198
:105E20000020FEF703FD08B9FEF7F2FC4FF08043B7
:105E30000022C3F8182508BD3403002010B510B1A6
:105E4000012843D010BD4FF08043D3F81814D3F885
:105E50001824C80321D502F00303012B04D013B189
:105E60000020FFF767FF00234FF080420220C2F8B6
:105E7000183508224FF4827303F180430021196022
:105E800002F180421C6801241460154A12680AB3AA
:105E90004FF08043C3F80403D4E7D3F81424D107A8
:105EA000E1D5D3F81C249207DAD40D4A12681AB14E
:105EB0000222C3F80423C5E7D3F80421002AFBD04B
:105EC0000022C3F80421D3F80431BBE700224FF4C9
:105ED0008073D1E71A68002AFCD019601B68B1E70B
:105EE0003403002010B54FF08043D3F800216AB18D
:105EF0000022C3F80021D3F800210122C3F80823AF
:105F0000114B587910B95A711B6898474FF080436C
:105F1000D3F8042172B10022C3F80421D3F804217C
:105F2000D3F81824D3F81824920704D10122C3F817
:105F300018259A6010BD0222C3F80823024BBDE861
:105F400010401B680120184734030020036803F049
:105F50001F025B09026004D0012B034818BF002018
:105F600070474FF0A040704700030050034A4309B8
:105F700000F01F00D35C1844C0B2704712870200C3
:105F800070B50546FFF7F2FF0C4C08300E4634F8AA
:105F90001030DA0508D5C3F3432304EBC3022846C7
:105FA00054F8333052689847A3682BB1E268314601
:105FB0002846BDE87040184770BD00BF140000209F
:105FC00008B5FFF7D3FF034B083033F81000400B40
:105FD00008BD00BF1400002008B5FFF7C7FF034B42
:105FE000083033F81000C0F3400008BD1400002052
:105FF00008B5FFF7BBFF034B083033F81000C0F3C0
:10600000401008BD14000020034611F0010010B537
:10601000CCB20DD1A207C4F3400012D5094AD2F880
:1060200020055860C2F82005003818BF012008E09C
:106030004FF0A041D1F820251A60C1F82025002A90
:10604000E8D010BD0003005010B5FFF78FFF124AD3
:10605000083032F81030D9051CD5C3F3432123F49E
:10606000F85322F8103002F10E04002034F8023FF9
:1060700013F4807F03D0C3F3432399420AD0013045
:106080003028F3D1002342F831300448BDE81040F5
:10609000FFF72ABE10BD00BF140000208C000020B6
:1060A000F0B5054600200446012607468C420BD178
:1060B000114BD3F87C2132B10022C3F87C21D3F8F4
:1060C0007C3140F00040F0BDE3B29B0003F58072EC
:1060D0009B0806FA03F31D420BD002F1804202F541
:1060E000C042D2F800C0BCF1000F02D017601268A5
:1060F00018430134DAE700BF00600040F7B50646F8
:106100000846FFF733FF194F00F108050C4637F832
:106110001530DB0727D5304601F038FF2046FFF762
:1061200067FF40B12046FFF74BFF316800F5A270D2
:10613000002341F820302046FFF786FF002301A806
:1061400027F815300194FFF701FF019B00EB830056
:10615000074BD0F80027134043F00203C0F8003784
:10616000044803B0F0BD0448FBE700BF1400002062
:10617000F0F8FCFF0000AD0B0400AD0B2DE9FF4172
:10618000164680460846FFF7F1FE0D463168044684
:1061900009B32846FFF720FF18B12846FFF728FF6C
:1061A00010BB0023CDE900338DF80E308DF80F3091
:1061B0000DF10F020B4628460DF10E0101F08EFE87
:1061C000474A04F1080132F8113023F0020343F08A
:1061D000010322F81130736863B328461F785968A9
:1061E000FFF7FAFE10B1D1B13E4826E03C4A04F177
:1061F000080032F8103023F02003DB04DB0C22F817
:10620000103061B1032FEFD87168496891F800C070
:10621000D8F80010A7B90CF5A27C41F82C70304AD0
:1062200004F1080132F8113023F01C0343EA87031C
:1062300022F81130B3684BBB2B4804B0BDE8F081A5
:1062400001EB8C0143EA4C33D1F810E52EF0030E3C
:10625000C1F810E5D8F8001001EB8C0E43F02003D4
:10626000DEF8101522F8103021F44F3121F440717E
:10627000CEF810152902DEF8108501F47C5141EAB0
:10628000074141EA0801CEF81015C8E7D3E90067D5
:106290002846FFF7D9FE002ECED0114DD5E90023B8
:1062A000964203D19F4201D1002209E00F480DF12F
:1062B0000F01FFF7F5FC0C4B9842BED19DF80F2063
:1062C00045F8326005EBC20308345F6035F81430DE
:1062D00043EA422343F4807325F81430ACE700BF4F
:1062E000140000200400AD0B0000AD0B8C0000205A
:1062F0002DE9F0430C4685B08046204611461E46E7
:10630000FFF734FE054629B32046FFF765FE18B9AE
:106310002046FFF76DFE18BB314F05F1080937F82D
:10632000193013F01C0F02D04B78012B18D0012329
:106330008DF80F300023CDE900134A1C8B1C20463A
:106340000DF10F0101F0CAFD37F8193043F00303D6
:1063500027F81930002E41D02046FFF73DFE18B92E
:10636000204805B0BDE8F08396F800C0D8F80030AA
:106370001B4F0CF5A272002143F8221005F1080210
:1063800037F8121021F02001C904C90C27F81210A7
:1063900075781DB3D8F80000B67800EB8C002D049A
:1063A000D0F8103523F4991323F4F853C0F81035BE
:1063B000230203F47C5305F440353605D0F810E58C
:1063C0002B4306F4801641EA4C31334341F020015F
:1063D00043EA0E0327F81210C0F810350248C0E750
:1063E000140000200400AD0B0000AD0B014BC3E90D
:1063F000021270471400002010B508461446FFF73B
:10640000F7FD50B10846FFF7B1FD054B083033F8F2
:10641000103004485B0B237010BD0348FCE700BF3D
:10642000140000200000AD0B0400AD0B70B5164D3C
:1064300095F8804006462CBB2146602205F11000ED
:1064400001F0E4FE30682E6F21468E420ED100230B
:10645000C0F87C31D0F87C3140F30730FEF7D8F932
:1064600001230A4885F88030AB6770BDCBB29B0032
:1064700003F580727C2B08BF845001F1010108BF35
:106480008358E2E70248F0E7140000200000AD0B5B
:106490000C00AD0B034B93F88000003818BF0120AF
:1064A000704700BF140000200148FFF71DBC00BF6B
:1064B000880000200148FFF7F3BB00BF88000020E0
:1064C00073B503681646D3F80423002AA8BF4FF01B
:1064D00000420546A8BFC3F8042308460C46FFF750
:1064E00087FD00B30846FFF777FD0146D8B920467F
:1064F000FFF766FD04B2A40004F580720346286825
:106500008150296882582144D1F8102542F00102B7
:10651000C1F810252EB12968012202FA03F3C1F84F
:10652000043302B070BD2046FFF720FD0F4B08304A
:1065300033F81030C3F38203042B12D0052B12D092
:1065400001A80194FFF702FD019AD0F81035D3405D
:1065500003F00103991C204602B0BDE8704001F031
:1065600006BD0321F7E70221F5E700BF1400002074
:106570002DE9F04F694BDFF8A881D3F80403D8F870
:106580007010C0B289B040F00040FFF789FD051ED1
:106590002FDAC24600235AF87C1F06A8CDE906333D
:1065A000FFF732FD5F4B01930DF118094FF0000B1F
:1065B000019A12F8013B0192DA0803F007031AF876
:1065C000022022FA03F3DA071CD409F10409BBF113
:1065D000000F14D0D8F870104FF00040FFF760FDA6
:1065E000D8F87C1006A8FFF70FFD0028DAD125F0B7
:1065F00000450124002D79D109B0BDE8F08F4FF09E
:10660000010BD5E7484B5B440293D9F800100029F1
:10661000DBD0029B91FAA1F11C78B1FA81F141EA39
:1066200044142046FFF7A2FC0830059438F8107097
:10663000C808BB0819F80020039301F007010123E3
:1066400003FA01F122EA010209F8002005A8FFF788
:106650007DFC059A039B02F5E072C7F3820650F8B1
:1066600022205B073746C2F3014224D52046394633
:10667000D6B2FFF785FC05A80594FFF767FC059BDC
:1066800003F5E07350F82330C3F301439E4207D172
:106690000021204601F06BFC3146204601F067FCEA
:1066A00005A80594FFF752FC059B012202FA03F3AB
:1066B000C0F82035A9E7022A0CD10321204601F0B9
:1066C00056FC06F00503012BEAD139462046FFF7B8
:1066D00057FCE5E702212046039201F048FC032E17
:1066E000F3D0039A032ADBD1022EEDE795FAA5F346
:1066F000B3FA83F304FA03F29B0003F1804303F53A
:10670000C04325EA0205D3F81005D3F81015C0F3ED
:106710000520C1F30141FFF733FC6BE70060004047
:10672000140000202287020022870200014601484F
:10673000FFF7B6BA9800002038B5EFF31185202393
:1067400083F31288BFF36F8F064B9C6801F05EFCE9
:1067500085F31188BFF36F8F2046BDE83840FDF701
:10676000FFBF00BF3C03002038B5094B53F8204061
:10677000013053F82050A54200D838BD636823B1DA
:10678000204601F046FC0834F5E723689847FAE70D
:106790007486020070B52B4B2B4C2C4D012286B019
:1067A00003201A70FFF7E0FF00F01CFE01F04DFC23
:1067B0000420FFF7D9FF2646AE4204F1300410D37F
:1067C00000F0C6FA204C224EAC4226D300F0D4FA98
:1067D000FDF796FC1F4A137B23F00103137306B0E9
:1067E00070BD54F80C3C059354F8103C049354F8D5
:1067F000143C039354F8183C029354F81C3C019346
:1068000054F8203C009354E90A2354E90C0100F0A9
:1068100029F954F8303C5E65CDE7D4E90A23B3F199
:10682000FF3F08BFB2F1FF3F05D052EA03012068E5
:1068300003D100F061FB3034C6E73146183000F078
:10684000E5FCF8E7710300201C8502001C850200AE
:106850003B8102005001002008B50348034A002193
:10686000121A01F0EEFB08BDB000002074030020F6
:1068700070B5002386B00122CDE90423134E144DD8
:1068800001930F22CDE902321249142303FB005574
:1068900006EBC01604464FF4C07000FB04110E4B0B
:1068A00000954FF4A072304600F0DCF8737B0B4A81
:1068B000EE6023F0040373734FF4046304FB0333AB
:1068C00013442C746B6006B070BD00BFD000002074
:1068D0003C030020C00B00204D80020080030020FC
:1068E000BFB50020FFF740FF294B83F30888294CF0
:1068F000294F636943F4007363610025E02384F842
:106900002230E57725766576A57684F82050636A8F
:1069100043F4E023636284F82350FDF7F3FEFEF7AF
:106920001FF84FF0FF33A362E362FEF7DFF8FEF7D4
:106930003BF81A481A4C00F0E1F801F053FB012033
:10694000FFF712FF0220FFF70FFF00F049FA154B87
:1069500015495C61154B05930123CDE903534FF4B1
:10696000C0623B46CDE901550095204600F07AF81B
:10697000627B064622F004022046627301F0B1FBFE
:106980002846FFF775FF3A4631462046FDF7CAFF15
:10699000C00B002000ED00E095670200D001002050
:1069A000500100203C030020400D002024870200FD
:1069B00070B5EFF31186202383F31288BFF36F8F36
:1069C0000468A0421AD0CCB1D4E9003213605A60F6
:1069D000637B002523F002036373C4E90055A560BF
:1069E00004F1180001F0DFFB2046A56701F079FBF8
:1069F00031460848BDE8704000F084B9D0E9023261
:106A00009A4218BF0133836086F31188BFF36F8FFA
:106A100070BD00BF7203002013B5EFF31181202475
:106A200084F31288BFF36F8F846844B1013C8460A3
:106A300081F31188BFF36F8F002002B010BD52EABE
:106A4000030406D181F31188BFF36F8F6FF00F003D
:106A5000F3E7CDE900230246014800F027F9ECE70F
:106A6000720300202DE9F043073285B022F00702BF
:106A70000E461F461099017300F158037F32C0E99A
:106A800016330446002322F03F0204218360417341
:106A90003F2A0F98A073C4E90633E37306F1400957
:106AA000A2F1400805D883F31188BFF36F8F084621
:106AB00002DFB51829462046FDF7B0FC07300E9BD3
:106AC00020F00700A066C4E9189802930D9B01937B
:106AD0002D1A0C9B00932A463B4631462046FDF773
:106AE000EFFE00236365044B9B6803B1DB6EE36636
:106AF000284605B0BDE8F0833C03002040F20113B6
:106B000083810023C0E91833C366014B9860704746
:106B10003C030020094A93686FF00A01996708490D
:106B200058674B6843F080534B60002383F3118810
:106B3000BFF36F8F9368986F704700BF3C030020CE
:106B400000ED00E070B590F90D20437B002A36DBA4
:106B5000D90634D11B4C63F07F032246437352F8AD
:106B6000183FE169934207D1C0E900210860E06164
:106B700011E09942F8D01B68002BF5D090F90E5027
:106B800093F90E60B542F4D0AE42F2DD5968C0E927
:106B9000003108605860A569954200D005B9E568E4
:106BA000A3685A7BD20604D1DA897F2A01D9AA695F
:106BB00032B1AB4202D0284600F086FA656170BD62
:106BC0006361FCE73C03002038B590F90D20437B5E
:106BD000002A014604DA03F07F03437301F047FA09
:106BE0000D4D2A46AB6852F8184F944200D004B9B4
:106BF000EC688B4207D05A7BD20604D1DA897F2A0F
:106C000001D9A2692AB1A34202D0204600F05CFA61
:106C100023466B6138BD00BF3C03002070B590F97E
:106C20000D20437B002A014604DA03F07F034373FF
:106C300001F01DFA4B7B1C4C63F07F0322464B7323
:106C400052F8183FE069934207D1C1E90020016082
:106C5000E16111E09842F8D01B68002BF5D091F962
:106C60000E5093F90E60B542F4D0AE42F2DD586892
:106C7000C1E9003001605960A569A368954200D060
:106C800005B9E5688B4207D05A7BD20604D1DA8970
:106C90007F2A01D9AA692AB1AB4202D0284600F066
:106CA00013FA2B46636170BD3C030020F8B5124B0C
:106CB0000C461146114A98681060DDE90676EFF33C
:106CC0001182202282F31288BFF36F8F9D682846BD
:106CD00001F0DFF9B6F1FF3F08BFB7F1FF3F06D083
:106CE00007493A46334605F1180000F08FFA20466E
:106CF000BDE8F840FFF70EBF3C0300205C03002016
:106D00003B81020049B9EFF3058030B9054B5A6960
:106D10009B689A4201D0FFF7FDBE81F31188BFF353
:106D20006F8F70473C030020034648B9EFF305829C
:106D300032B9064A51699268914201D0FFF7EABE22
:106D400083F31188BFF36F8F704700BF3C030020AF
:106D5000EFF31181202383F31288BFF36F8F054B6C
:106D60009A68D37B013BD37381F31188BFF36F8F94
:106D7000704700BF3C03002070B5EFF3118620235D
:106D800083F31288BFF36F8F144DAB68DA7B013247
:106D9000DA732A4652F8184F944200D004B9EC68CE
:106DA0005A7BD20604D1DA897F2A01D9A2692AB195
:106DB000A34202D0204600F087F923466B6186F398
:106DC0001188BFF36F8FEFF31180202383F31288B4
:106DD000BFF36F8FBDE87040FFF7A6BF3C030020F4
:106DE000024B03F11802C3E9062270473C0300205E
:106DF00070B5EFF31186202383F31288BFF36F8FF2
:106E00001B4CA168E0690B68814214BF1A4600223E
:106E100049680B605960A368E1692AB9154AC3E95A
:106E200000210B60E3610CE093F90E0092F90E5023
:106E3000A84218D0854216DD5168C3E900210B60D5
:106E40005360A5690B4B9D4200D005B9E568A36866
:106E50009D4202D0284600F037F965613046BDE812
:106E60007040FFF757BE8A42D8D01268D5E700BFFE
:106E70003C0300205403002050EA01032DE9F041B7
:106E800005460E4604D1FFF7B3FF0020BDE8F081B0
:106E9000831C71F1FF3324DB01F0A6F94419EFF3F1
:106EA0001188202383F31288BFF36F8F0F4F104B8D
:106EB000B8681860FFF788FEB8680E492A4633465E
:106EC000183000F0A3F9BA68537B43F004035373FE
:106ED0004046FFF71FFE01F087F9201A20EAE07014
:106EE000D4E76FF00104241AD9E700BF3C03002067
:106EF0005C0300203B81020038B50446EFF31185A6
:106F0000202383F31288BFF36F8F437B5B070FD57A
:106F1000183001F048F9637B23F0040320466373C3
:106F2000FFF710FE29460548BDE83840FFF7EABEE6
:106F300085F31188BFF36F8F38BD00BF7203002047
:106F4000014B9868704700BF3C0300202DE9F843CF
:106F50000446077BEFF31186202383F31288BFF3E7
:106F60006F8F437B190705D586F31188BFF36F8FA9
:106F7000BDE8F883D90943F0080261D14273A368E0
:106F800013B1204601F07BF804F1180001F00BF971
:106F9000A56D04F15808A84511D04FF0000975B14E
:106FA000284601F06CF805F1180001F0FCF8C5F86E
:106FB00078902846FFF7C6FDA56DA845EFD1DFF80C
:106FC000A080D8F808309C4242D1EFF30589B9F18E
:106FD000000918BF4FF00109D8F81850214A95420E
:106FE00000D00DB9D8F80C50AB4202D0284600F0C2
:106FF0006BF8C8F81450B9F1000F02D01A48FFF727
:107000007DFDD8F808309C4225D1EFF3058313BBF2
:10701000227BD20706D583F31188BFF36F8F042339
:10702000184602DF3046FFF775FDFB07A0D50023A9
:1070300083F31188BFF36F8F0423184602DF97E7AD
:1070400003F07F0343F00803437301F010F896E761
:107050004FF00009C0E786F31188BFF36F8FE4E7B4
:107060003C03002054030020D0010020044BC01A30
:10707000044BC0105843044B01221A54704700BF00
:1070800050020020ABAAAAAA72030020C3897F2B5A
:1070900012D80A4B1B6863B1094B90F90E201B688C
:1070A0009A4209DB437BDB0606D1064BC31A18BFA5
:1070B000012303F0010070470023FAE76403002076
:1070C00060030020D000002070B50E4B0E4C1E7CDB
:1070D00006EB460304EBC3040546204601F063F8C3
:1070E0000A4B002228469A55FFF7D0FF48B1084BBB
:1070F00008491A68013A2046D317BDE8704000F0ED
:1071000085B870BD3C0300205002002072030020AF
:10711000640300206D70020038B5EFF31185202361
:1071200083F31288BFF36F8F104B114A9C6810686D
:10713000A04206D1FFF7C8FF85F31188BFF36F8F18
:1071400038BD00211B7C11600A4AD35C002BF3D0B0
:107150002046FFF79BFF0028EED0637BDB0602D1C1
:107160002046FFF75BFD2046E4E700BF3C0300201C
:107170005C030020720300200748084A084908B54C
:10718000121A00F060FF0748074A0849BDE80840A6
:10719000121A00F058BF00BF00000020AE0000200F
:1071A00064870200000000200000002064870200C5
:1071B000024B1868984208BF002070479C000020CE
:1071C000034B1B680BB9FEF7A5BC0020704700BF3E
:1071D0006803002030B570B10B4B5B6898420AD051
:1071E000036843B1D3E90421D0E90445121941EB06
:1071F0000501C3E90421D0E9003213605A6000237D
:10720000C0E9003330BD00BF9C000020B3F1FF3F58
:1072100008BFB2F1FF3FF8B504461D4616465AD0E6
:107220008160EFF31187202383F31288BFF36F8F00
:10723000013275F1FF3321DA2C49D1E900206FF0DA
:1072400001039B1A4FF0FF3262EB00009E1B60EBC4
:107250000500012E70F1000301DA01260020C4E9C7
:107260000460FFF7A5FF224E84467068BCF1000F52
:107270000DD1C4E90060046074601CE0FFF7A0FF5A
:10728000013645F10005361845EBE070E7E7DCE92B
:107290000425D4E90431934271EB050E1CDAD21AAD
:1072A000DCF8043065EB0105CCE90425C4E900C332
:1072B0001C60CCF80440FFF77BFF844207D10D4BE4
:1072C0001C6824B900F056FF2146FEF7F5FB87F352
:1072D0001188BFF36F8FF8BD9B1A61EB05018445E0
:1072E000C4E90431C5D0DCF800C0BFE76802002063
:1072F0009C000020680300202DE9F047EFF3118582
:10730000202383F31288BFF36F8FDFF8A090DFF89C
:10731000A080C9F80000FFF74BFF00260027D9F82E
:107320000030D8E900ECD91750B1D0E90442A342AB
:1073300071EB020A1ADAE41A62EB0102C0E90442B4
:1073400013EB0E034CEB01010024C8E90031C9F82E
:10735000004000F00FFF2146FEF7AEFB85F31188D9
:10736000BFF36F8FBDE8F047FFF7D6BE14EB0E02F8
:107370004CEBE473C0E90467C8E90023FFF72AFF78
:1073800085F31188BFF36F8F83689847EFF31185FA
:10739000202383F31288BFF36F8FD9F800301B1BB3
:1073A000C9F80030FFF704FFB9E700BF6803002009
:1073B0006802002010B5EFF31184202383F31288B4
:1073C000BFF36F8FFFF7FCFE054A0346D2E90001C9
:1073D000181841EBE37184F31188BFF36F8F10BD70
:1073E00068020020014800F0DDBA00BF29870200D2
:1073F0000FB407B5064B04AA186852F8041B019293
:1074000000F008F803B05DF804EB04B0704700BF6B
:10741000A48502002DE9F04F8DB043680293837874
:1074200015469A07804640F10D8100240E78002E03
:1074300000F00A81252E0BD04B1C03930134029BD4
:107440004146304698470028C0F2F6800399EDE7A0
:107450004E788B1C252E0393F0D00027B946BB46EF
:10746000BBF11F0F38D8A6F12003102B0AD8DFE894
:1074700003F02A0909300909092109090928092DF8
:1074800009091F00A6F13003092B33D92A2E37D161
:107490001BF0400F55F8043B40F08280002BA7BF43
:1074A0004BF0200B9946C3F100094BF0280B01E08B
:1074B0004BF0010B039B13F8016B0393002ECFD10C
:1074C00030E04BF0020B4BF0040BF3E74BF0080BF2
:1074D000F0E74BF0100BEDE7BBF17F0F19D8A6F1E9
:1074E0003003092BD2D81BF0400F03D00A2101FB37
:1074F0000737DFE70A2101FB09394BF0200BD9E7F9
:107500002E2E06D11BF0400F40F09E804BF0400B1A
:10751000D0E76C2E31D02BD8682E36D06A2E3CD0D6
:107520004C2E3AD0002F46F02003B8BF2BF040027B
:10753000A3F16501BCBF1FFA82FB0027022901D914
:10754000612B2FD1073525F00705DFF8ACA20835F0
:1075500007271BF0080F66D00AEB070B56465E455F
:1075600063D1A4EB0A0A06EB0A02A9EB07096FE153
:10757000742E9FD07A2E9DD0D4E71BF0800F18BFB9
:107580004BF4007B4BF0800B94E71BF4807F18BF1B
:107590004BF4007B4BF4807B8CE74BF4207B89E73A
:1075A0001F4687E7A6F16301122900F2F080DFE8A9
:1075B00011F013004F00EE00EE00EE00EE004F0061
:1075C000EE00EE00EE00EE00EE00FE00E900EE0040
:1075D000EE001B00EE00AF0055F8043B8DF81830AC
:1075E00001270DF1180AB4E755F804AB834BBAF143
:1075F000000F08BF9A461BF0400F14BF39464FF0EA
:10760000FF31504600F00AFE0746A2E7029B4146C2
:107610002020984700280FDB013EB742F6D34C44A8
:10762000A41BB14698E74E46F7E716F8010B029BFC
:1076300041469847002892DA98F8023043F0040354
:1076400088F802304FF0FF3420460DB0BDE8F08FCF
:107650001BF0800F34D01BF4007F2CD0073525F0B1
:107660000705AA4669685AF8080B2BF0100500298F
:10767000ADB237DA404261EB410145F480650DF16E
:10768000180B0A235A4600F0D5FDA0EB0B0301931B
:107690006B0662D5019B25F001019F4289B240F340
:1076A000A180002E00F0998015F0100240F09C801F
:1076B000BB460D4623E0AA465AF8040BC117D4E78F
:1076C000AA461BF4807F5AF8041B01D10846F5E74F
:1076D0001BF4007F15BF48B208B241F3C01141F35B
:1076E000C031C2E750EA0103C9D11BF0400FC6D038
:1076F000002FC4D12BF0110295B2BB46019740F286
:10770000064115EA01021CBF0BF1010B00222CE01F
:107710002BF010021FFA82FB0A231BF0800C49D0C9
:107720001BF400711DBF073525F00705AA46AA46C0
:107730001ABF5AF8080B69685AF8040B50EA010599
:1077400045D12BF016051BF0400FADB242D0002FF3
:1077500040D12BF0170295B2019715F0100248D0D6
:10776000019B002E42D103F1010B29075AD4EB07EC
:1077700006D5D9456FDD0199A9EB0B035F18CB4600
:107780005B4649E04BF0100B10237826C5E7782BB9
:1077900004D1C6F1780343F01003BEE7029B4146D3
:1077A000252098470028FFF647AF023447E6082314
:1077B0000026B2E7AA461BF480715AF8040BBDD02C
:1077C0001BF400711ABFC0B2614680B2B6E72BF05D
:1077D000060295B20DF1180B54E725F01105ADB274
:1077E000BB468CE70D46B8E73B460D4603F1020B5E
:1077F000BBE7DDF804B082E75C8702005587020032
:10780000CDE904324146029B202098470028FFF62C
:1078100013AF049B059A01339945F1DCA4EB0B01EE
:10782000CC189B460AB3029B41463020984700285B
:10783000FFF602AF8EB901342744019B391B9942F0
:1078400024DC1D465DBB019AA9EB0B092244554679
:107850001446914435E0019F92E702344146304698
:10786000029B98470028E7DAE6E640F206410D421F
:10787000E2D015F0020F14BF2B20202015F4806FEA
:1078800004F10104414618BF2D20E9E7029B41465F
:1078900030209847002804F10104CEDACCE606AB8C
:1078A000013D4146585D029B98470028CADAC3E66D
:1078B000029B414620209847002804F10104FFF66E
:1078C000BBAEA9EB0403002BF2DCBFE5704700EB75
:1078D000C100408840087047F8B50346FFF7F7FF3E
:1078E000B0FA80F0C0F11F0003EB800CCA00DCF896
:1078F0001060171D0C4606328DB256B9012101FAEF
:1079000000F0D9680143D960CCF81040DD539D5296
:10791000F8BDF1000431585AD85303EBC0009E5211
:10792000C5805D52F4E7043A2DE9F041CC1D1144C5
:1079300024F0070421F007010E1BF708B7FA87F2BD
:10794000C2F12405AD004FF000080735C2F1200256
:10795000ED0804604146A760C4F80C80920004F171
:10796000100000F053FC6B0043F00103638004EB54
:10797000C5027B1B5900A4F800805180A21924F88D
:107980003550A2F80280A35304EBC70329465A8856
:1079900042F001025A802046BDE8F041FFF79CBF4B
:1079A000002070470FB407B504A951F8040B0191EA
:1079B000FCF7EAFB03B05DF804EB04B07047038BFF
:1079C00013F0070305D10368002B0CBF0020032030
:1079D0007047022B05D1408BB0FA80F0400980003F
:1079E0007047012B05D10368002B0CBF0020052038
:1079F00070470020704710B50C4600B111B96FF008
:107A0000150010BD081D00F093F80028F9D1A368F7
:107A1000032BF6D9F3E72DE9F0410D460746194649
:107A2000281D90461E4600F094F8044638B13346AF
:107A3000424629463846A446BDE8F0416047BDE8C5
:107A4000F08110B4EFF31182202484F31288BFF385
:107A50006F8F416110BC0121FCF7C8BB38B50C46E3
:107A6000054658B151B10B6843B14B6833B11C2284
:107A7000002100F0CBFB2C61002038BD6FF0150019
:107A8000FBE770B505460E46FFF7B5FF041E14DB95
:107A9000EFF31182202383F31288BFF36F8F6B8B78
:107AA0002C8B4FF6FF718B4204F0070407D182F351
:107AB0001188BFF36F8F6FF00A04204670BD022C4F
:107AC0000CD101336B8382F31188BFF36F8F0023D6
:107AD000224631462846FFF79EFFEEE7062C14D8D3
:107AE000DFE804F004131313041A040000233360C6
:107AF0006B683BB9C5E90066ACB902212846FCF7C2
:107B000075FBDAE71E606E60F6E782F31188BFF35B
:107B10006F8F6FF00404D0E782F31188BFF36F8F8B
:107B20006FF08504C9E782F31188BFF36F8FC4E754
:107B3000034658B1426802F00302012A03D0032A27
:107B400004D1026812B10020986070476FF01500F0
:107B500070474268816002F00302032A4FF000027E
:107B600003460CBF006810465A60704770470128F2
:107B700001D1EFF30583FEF7DFBD01460068FFF793
:107B8000F6BF08B5FCF746FCBDE80840FCF766BC4C
:107B900000210120FFF7EBBF61B662B680F31188C8
:107BA000BFF36F8F704772B6002383F31188BFF362
:107BB0006F8FBFF34F8F30BF62B6BFF36F8F7047C9
:107BC00072B6002383F31188BFF36F8FBFF34F8F1B
:107BD00020BF80F31188BFF36F8F62B670472028F3
:107BE00009D9B0F1004F08D80138B0FA80F0C0F1DF
:107BF0001F0040007047082070473E20704708B5BE
:107C0000FDF728F8002008BD0369C9B20C2201FB6A
:107C10000233186C00F00700704770B5C9B20369F1
:107C2000EFF31185202484F31288BFF36F8F0C26A5
:107C300006FB0134246C14F0C00408D0A24206D024
:107C400085F31188BFF36F8F4FF0FF3070BD06FBD7
:107C5000013301221A6485F31188BFF36F8F4368E3
:107C600003EBC1035B6898470020EFE78022FFF732
:107C7000D4BFF8B5069F0469C9B2EFF31186202579
:107C800085F31288BFF36F8F0C2505FB0144256C2B
:107C900005F0070CBCF1010F0CD1276486F31188A5
:107CA000BFF36F8FC4E90E23436853F83130984710
:107CB0000020F8BD05F0C005AF4286F31188BFF380
:107CC0006F8F0CBF6FF077004FF0FF30F1E713B507
:107CD00080240094FFF7CDFF02B010BD10B40069FE
:107CE000CBB21C2403FB0400002110BC1047002071
:107CF000FEF7A4B8002000F0EFB81046FEF758BE1B
:107D000043685B68D3F810350B6000207047436808
:107D10005B6802EA010021EA0201C3F80805C3F822
:107D20000C150020704743685B680020C3F80815F5
:107D3000704743685B680020C3F80C1570474368C0
:107D40005A68D2F8043521EA03000B40C2F808054E
:107D5000C2F80C350020704710B503695868F8B1B7
:107D6000884219D19C6808685860A14200D1986087
:107D7000002008602AB15A680A609A68596002B9FE
:107D80009960002010E0814206D108682060986860
:107D90008142EDD19C60EBE7044600680028F2D1F7
:107DA000002AE8D16FF0150010BD30B543681360AC
:107DB000057A446804EBC504A34202D36FF00100C6
:107DC00030BD5C798C4201D00833F0E70020F7E742
:107DD00043681B68D3F88004C3F880047047426886
:107DE0001368D3F8100150B1D269002012780A70DC
:107DF000C3F81001D3F8102101221A6070474FF028
:107E0000FF30704702680346D2F8580140B95B68FA
:107E1000DB0706D4D2F82001003818BF01207047D4
:107E20000120704743681B68D3F80423D20517D597
:107E3000D3F82021A2B1EFF31182202181F312881F
:107E4000BFF36F8FD3F8201131B10021C3F8201197
:107E5000D3F820110121D96082F31188BFF36F8F0D
:107E6000D3F85831704710B500220446012128206C
:107E7000FCF7EAFC2820FCF7CBFC2046BDE81040CC
:107E8000FDF7BCBB10B50022044601210220FCF71F
:107E9000DBFC0220FCF7BCFC2046BDE81040FDF7EF
:107EA000ADBB00F150039B009BB203F1804303F58F
:107EB000883300221A601B687047004700F08EB8B4
:107EC000C00000F1804000F5F830C0F81015C0F88F
:107ED00014257047FEF72ABCFDF72CBFF7B50190BB
:107EE00001A8DDE9084716461D46FEF72FF8019B5D
:107EF000B6F1000C18BF4FF0010C00EB83000B1E15
:107F000018BF0123002D43EA4C0314BF4FF00C0CA3
:107F10004FF0000C002C43EA0C0314BF4FF4E06C4C
:107F20004FF0000C002F43EA0C03D0F8002714BFD9
:107F30004FF4403C4FF0000C43EA0C0322EA0303E9
:107F400001B109780EB13678760019430DB12D785C
:107F5000AD0031430CB12478240229430FB13F789E
:107F60003F040C433C43C0F8004703B0F0BD1FB5CD
:107F70000DF10F03019300238DF80F1000931A46A3
:107F80001946FFF7ABFF05B05DF804FB38B50546B1
:107F900008460C46FEF72CF8B0B10846FEF71CF870
:107FA00090B90846FEF70CF82A6801238340C2F80E
:107FB00008332A6803B202EB8303D3F8102522F0BA
:107FC0000302C3F8102538BD20460021BDE8384023
:107FD000FFF7CDBFFEF792B8FFF7D8BF08B1FCF7A7
:107FE00081BE7047704740B1C368587810F00100F7
:107FF0001EBF1878B0FA80F040097047EFF3118384
:10800000202383F31288BFF36F8FFEE708B5FFF7D5
:10801000F5FF10B5D0E9003433B90020E268537899
:1080200043F00103537010BD204698470028F4D058
:108030000028B8BF4042E368FF28A8BFFF2018709F
:10804000ECE700F0E3B800F0D3B8704708B520249F
:10805000EFF3118384F31288BFF36F8FFFF7A3FD53
:10806000F6E7EFF30580003818BF01207047D0E92C
:10807000003213605A600023C0E90033704708B52E
:10808000FFF7F5FF437B23F0020343730023836074
:1080900008BD38B504460D46FEF796FD637B43F0F8
:1080A00002036373E5B1A5602B689D4209D16B683B
:1080B000C4E900531C606C6012E06A689A42F6D012
:1080C0001B68002BF3D094F90E2093F90E108A420E
:1080D000F3D09142F1DD5A68C4E9003214605C606B
:1080E00038BD10B5EFF31184202383F31288BFF35A
:1080F0006F8FFEF727FD84F31188BFF36F8F10BDDC
:1081000010B50146EFF31184202383F31288BFF3E7
:108110006F8F437B13F0280F0AD183680BB1FFF7F1
:10812000AEFF4B7B23F004034B730846FEF70AFDBA
:1081300084F31188BFF36F8F10BD01211838FFF74A
:10814000DFBF38B50C460546FEF796FEB4F1FF3F9B
:1081500008BFB5F1FF3F1FBF47F6FF7300224FF482
:108160007A71C0FB01321ABFD80B40EA42404FF08F
:10817000FF3038BD10B5FFF71BF80446FFF720F8B5
:1081800074B1D4E904321B1A62EBE072B3F1004F10
:1081900072F1000104DA002AACBF1846002010BDBD
:1081A0006FF00040FBE738B50246EFF3118520235E
:1081B00083F31288BFF36F8F036893B1FEF7F8FF64
:1081C00004461046FFF706F8844204D1FFF7D2FFB9
:1081D0000021FDF771FC002085F31188BFF36F8F3C
:1081E00038BD6FF01500F7E708B5FFF7E3F808BDF5
:1081F0000A44914200F1FF3300D1704710B511F8E5
:10820000014B03F8014F9142F9D110BD02440346DE
:10821000934200D1704703F8011BF9E710B50246FD
:1082200001448A42134603D01C780132002CF8D155
:10823000181A10BDF0B5C3F137070446FFB203F0BA
:108240001F031046082BE6B233D0102B3ED0650832
:10825000A40844EA817445EAC1752D194FEA9102D8
:1082600042EB5102290941EA02716D1842EB1212E8
:10827000290A41EA02616D1842EB1222290C41EAF7
:1082800002416D1842EB1242AD1842F10002EC08B7
:1082900044EA4274D10804EB8402A6EB4205EDB235
:1082A000092D0CD90134A5F10A0541F10001EDB207
:1082B00012E0E40844EA417406F00705C9083035C5
:1082C00054EA010200F8015BBCD1F0BD240944EA84
:1082D000017406F00F050909092D84BFED19EDB2EF
:1082E000EDE70000014800687047000070020020C0
:1082F000A14C020000000000A14D020038830200E2
:108300005951020060830200595102004C8302005F
:10831000857E020088830200677E0200748302006B
:108320000950020000000000555902000000000042
:108330007D4C020000000000B7860200B4850200F8
:1083400040850200A4000020A4020020C68602008E
:10835000C48502001C850200A6000020F80200204F
:10836000D4860200DC8502001C850200A8000020E3
:1083700004030020EA860200F48502005C85020006
:10838000AA00002010030020F886020030860200B8
:108390005C850200AC0000201C030020E55E0200AA
:1083A000BB7E020000000000917B02008883020077
:1083B000257E020000000000917B0200000000000A
:1083C000917B020000000000917B020071650200B9
:1083D000BB7E020000000000917B02000000000054
:1083E000917B020000000000917B02000000000071
:1083F000917B020000000000917B02000000000061
:10840000917B020000000000917B02000000000050
:10841000917B020000000000917B02000000000040
:10842000917B020000000000E559020000000000FE
:10843000917B020000000000917B02000000000020
:10844000917B020000000000917B02000000000010
:10845000917B020000000000917B02000000000000
:10846000917B020000000000917B020000000000F0
:10847000917B020000000000917B020000000000E0
:10848000917B020000000000917B020000000000D0
:10849000917B020000000000917B020000000000C0
:1084A000917B020000000000917B020000000000B0
:1084B000917B020000000000917B020000000000A0
:1084C000917B020000000000917B02000000000090
:1084D000917B020000000000917B02007483020087
:1084E000257E020000000000917B020000000000D9
:1084F000917B020000000000917B02000000000060
:10850000917B020000000000917B0200000000004F
:10851000917B020000000000917B0200ED510200FF
:10852000017D02000F7D0200277D0200337D0200E5
:108530003F7D020059500200597D020000000000FA
:10854000F94D02006D7C0200CF7C020000000000AB
:10855000097C02000000000000000000DF7D020036
:0885600049550200D17D020023
:108570000338FDD870470000000000200000000014
:1085800000000B06020000008C8502000040020083
:10859000A28602002600020700000020AA86020030
:1085A00022000B1104000020294D0200F94C0200AA
:1085B00000000000794E02006D4D0200EF7C0200C9
:1085C000F57C0200FFFF00000003005000000000E7
:1085D000010000000060004000000000FFFFFFFFFE
:1085E000000000500000000000000000006000409B
:1085F00000000000008002400100000000000000B8
:10860000148602000000D601000000006E03002066
:108610006D0300200080024020860200010000005F
:108620002886020002000000230000002A06000144
:108630000020004001000000000000005086020001
:108640000000D60100000000700300206F0300202E
:10865000002000405C8602000100000064860200E9
:1086600004000000060000000500000208060001EA
:1086700007060003F0820200F08202002883020055
:108680003083020038830200388302004F4E004FCF
:108690004646004C45442073746174653A20257346
:1086A0000A00464C4153485F30005352414D5F3001
:1086B00000000001000000636C6F636B40343030D9
:1086C0003030303030006770696F403530303030D6
:1086D000333030006770696F4035303030303030C3
:1086E000300000010203040506077561727440340E
:1086F0003030323830303000756172744034303090
:108700003032303030000000000000010100000075
:1087100000000020303030303030303030303030F9
:10872000303000016D61696E002A2A2A20426F6F85
:1087300074696E67205A6570687972204F532062A1
:1087400075696C642076342E312E302D72633120A1
:108750002A2A2A0A00286E756C6C29002A666C6F1A
:1087600061742A00A179020000000000FF7B020072
:1087700000000000000000000000000000000000F9
:1087800000000000000000000000000000000000E9
:1087900000000000000000000000000000000000D9
:1087A00000000000000000000000000000000000C9
:1087B00000000000000000000000000000000000B9
:1087C00000000000000000000000000000000000A9
:1087D0000000000000000000000000000000000099
:1087E000000000000000000008000000FF00000082
:1087F000000000000300000000000000FFFF0F0069
:108800009C0000209C0000200000000000000000F0
:06881000000015E015E078
:00000001FF
